{
  "contractName": "ColorsERC721",
  "abi": [
    {
      "constant": false,
      "inputs": [
        {
          "name": "_to",
          "type": "address"
        },
        {
          "name": "_tokenId",
          "type": "uint256"
        }
      ],
      "name": "approve",
      "outputs": [],
      "payable": false,
      "stateMutability": "nonpayable",
      "type": "function"
    },
    {
      "constant": true,
      "inputs": [],
      "name": "totalSupply",
      "outputs": [
        {
          "name": "",
          "type": "uint256"
        }
      ],
      "payable": false,
      "stateMutability": "view",
      "type": "function"
    },
    {
      "constant": true,
      "inputs": [
        {
          "name": "_tokenId",
          "type": "uint256"
        }
      ],
      "name": "approvedFor",
      "outputs": [
        {
          "name": "",
          "type": "address"
        }
      ],
      "payable": false,
      "stateMutability": "view",
      "type": "function"
    },
    {
      "constant": true,
      "inputs": [
        {
          "name": "_owner",
          "type": "address"
        }
      ],
      "name": "tokensOf",
      "outputs": [
        {
          "name": "",
          "type": "uint256[]"
        }
      ],
      "payable": false,
      "stateMutability": "view",
      "type": "function"
    },
    {
      "constant": true,
      "inputs": [
        {
          "name": "_tokenId",
          "type": "uint256"
        }
      ],
      "name": "ownerOf",
      "outputs": [
        {
          "name": "",
          "type": "address"
        }
      ],
      "payable": false,
      "stateMutability": "view",
      "type": "function"
    },
    {
      "constant": true,
      "inputs": [
        {
          "name": "_owner",
          "type": "address"
        }
      ],
      "name": "balanceOf",
      "outputs": [
        {
          "name": "",
          "type": "uint256"
        }
      ],
      "payable": false,
      "stateMutability": "view",
      "type": "function"
    },
    {
      "constant": true,
      "inputs": [],
      "name": "PRICE",
      "outputs": [
        {
          "name": "",
          "type": "uint256"
        }
      ],
      "payable": false,
      "stateMutability": "view",
      "type": "function"
    },
    {
      "constant": true,
      "inputs": [],
      "name": "owner",
      "outputs": [
        {
          "name": "",
          "type": "address"
        }
      ],
      "payable": false,
      "stateMutability": "view",
      "type": "function"
    },
    {
      "constant": true,
      "inputs": [],
      "name": "NAME",
      "outputs": [
        {
          "name": "",
          "type": "string"
        }
      ],
      "payable": false,
      "stateMutability": "view",
      "type": "function"
    },
    {
      "constant": false,
      "inputs": [
        {
          "name": "_to",
          "type": "address"
        },
        {
          "name": "_tokenId",
          "type": "uint256"
        }
      ],
      "name": "transfer",
      "outputs": [],
      "payable": false,
      "stateMutability": "nonpayable",
      "type": "function"
    },
    {
      "constant": false,
      "inputs": [
        {
          "name": "_tokenId",
          "type": "uint256"
        }
      ],
      "name": "takeOwnership",
      "outputs": [],
      "payable": false,
      "stateMutability": "nonpayable",
      "type": "function"
    },
    {
      "constant": false,
      "inputs": [
        {
          "name": "newOwner",
          "type": "address"
        }
      ],
      "name": "transferOwnership",
      "outputs": [],
      "payable": false,
      "stateMutability": "nonpayable",
      "type": "function"
    },
    {
      "constant": true,
      "inputs": [],
      "name": "SYMBOL",
      "outputs": [
        {
          "name": "",
          "type": "string"
        }
      ],
      "payable": false,
      "stateMutability": "view",
      "type": "function"
    },
    {
      "inputs": [],
      "payable": false,
      "stateMutability": "nonpayable",
      "type": "constructor"
    },
    {
      "anonymous": false,
      "inputs": [
        {
          "indexed": true,
          "name": "previousOwner",
          "type": "address"
        },
        {
          "indexed": true,
          "name": "newOwner",
          "type": "address"
        }
      ],
      "name": "OwnershipTransferred",
      "type": "event"
    },
    {
      "anonymous": false,
      "inputs": [
        {
          "indexed": true,
          "name": "_from",
          "type": "address"
        },
        {
          "indexed": true,
          "name": "_to",
          "type": "address"
        },
        {
          "indexed": false,
          "name": "_tokenId",
          "type": "uint256"
        }
      ],
      "name": "Transfer",
      "type": "event"
    },
    {
      "anonymous": false,
      "inputs": [
        {
          "indexed": true,
          "name": "_owner",
          "type": "address"
        },
        {
          "indexed": true,
          "name": "_approved",
          "type": "address"
        },
        {
          "indexed": false,
          "name": "_tokenId",
          "type": "uint256"
        }
      ],
      "name": "Approval",
      "type": "event"
    },
    {
      "constant": true,
      "inputs": [],
      "name": "name",
      "outputs": [
        {
          "name": "",
          "type": "string"
        }
      ],
      "payable": false,
      "stateMutability": "pure",
      "type": "function"
    },
    {
      "constant": true,
      "inputs": [],
      "name": "symbol",
      "outputs": [
        {
          "name": "",
          "type": "string"
        }
      ],
      "payable": false,
      "stateMutability": "pure",
      "type": "function"
    },
    {
      "constant": false,
      "inputs": [
        {
          "name": "_tokenId",
          "type": "uint256"
        }
      ],
      "name": "mint",
      "outputs": [],
      "payable": true,
      "stateMutability": "payable",
      "type": "function"
    },
    {
      "constant": false,
      "inputs": [
        {
          "name": "_tokenId",
          "type": "uint256"
        }
      ],
      "name": "claim",
      "outputs": [],
      "payable": true,
      "stateMutability": "payable",
      "type": "function"
    }
  ],
  "bytecode": "0x6060604052341561000f57600080fd5b33600560006101000a81548173ffffffffffffffffffffffffffffffffffffffff021916908373ffffffffffffffffffffffffffffffffffffffff1602179055506115d98061005f6000396000f3006060604052600436106100f1576000357c0100000000000000000000000000000000000000000000000000000000900463ffffffff16806306fdde03146100f6578063095ea7b31461018457806318160ddd146101c65780632a6dd48f146101ef578063379607f5146102525780635a3f26721461026a5780636352211e146102f857806370a082311461035b5780638d859f3e146103a85780638da5cb5b146103d157806395d89b4114610426578063a0712d68146104b4578063a3f4df7e146104cc578063a9059cbb1461055a578063b2e6ceeb1461059c578063f2fde38b146105bf578063f76f8d78146105f8575b600080fd5b341561010157600080fd5b610109610686565b6040518080602001828103825283818151815260200191508051906020019080838360005b8381101561014957808201518184015260208101905061012e565b50505050905090810190601f1680156101765780820380516001836020036101000a031916815260200191505b509250505060405180910390f35b341561018f57600080fd5b6101c4600480803573ffffffffffffffffffffffffffffffffffffffff169060200190919080359060200190919050506106c9565b005b34156101d157600080fd5b6101d961085c565b6040518082815260200191505060405180910390f35b34156101fa57600080fd5b6102106004808035906020019091905050610865565b604051808273ffffffffffffffffffffffffffffffffffffffff1673ffffffffffffffffffffffffffffffffffffffff16815260200191505060405180910390f35b61026860048080359060200190919050506108a2565b005b341561027557600080fd5b6102a1600480803573ffffffffffffffffffffffffffffffffffffffff1690602001909190505061091d565b6040518080602001828103825283818151815260200191508051906020019060200280838360005b838110156102e45780820151818401526020810190506102c9565b505050509050019250505060405180910390f35b341561030357600080fd5b61031960048080359060200190919050506109ba565b604051808273ffffffffffffffffffffffffffffffffffffffff1673ffffffffffffffffffffffffffffffffffffffff16815260200191505060405180910390f35b341561036657600080fd5b610392600480803573ffffffffffffffffffffffffffffffffffffffff16906020019091905050610a38565b6040518082815260200191505060405180910390f35b34156103b357600080fd5b6103bb610a84565b6040518082815260200191505060405180910390f35b34156103dc57600080fd5b6103e4610a8f565b604051808273ffffffffffffffffffffffffffffffffffffffff1673ffffffffffffffffffffffffffffffffffffffff16815260200191505060405180910390f35b341561043157600080fd5b610439610ab5565b6040518080602001828103825283818151815260200191508051906020019080838360005b8381101561047957808201518184015260208101905061045e565b50505050905090810190601f1680156104a65780820380516001836020036101000a031916815260200191505b509250505060405180910390f35b6104ca6004808035906020019091905050610af8565b005b34156104d757600080fd5b6104df610b89565b6040518080602001828103825283818151815260200191508051906020019080838360005b8381101561051f578082015181840152602081019050610504565b50505050905090810190601f16801561054c5780820380516001836020036101000a031916815260200191505b509250505060405180910390f35b341561056557600080fd5b61059a600480803573ffffffffffffffffffffffffffffffffffffffff16906020019091908035906020019091905050610bc2565b005b34156105a757600080fd5b6105bd6004808035906020019091905050610c15565b005b34156105ca57600080fd5b6105f6600480803573ffffffffffffffffffffffffffffffffffffffff16906020019091905050610c40565b005b341561060357600080fd5b61060b610d98565b6040518080602001828103825283818151815260200191508051906020019080838360005b8381101561064b578082015181840152602081019050610630565b50505050905090810190601f1680156106785780820380516001836020036101000a031916815260200191505b509250505060405180910390f35b61068e611508565b6040805190810160405280600681526020017f434f4c4f52530000000000000000000000000000000000000000000000000000815250905090565b6000813373ffffffffffffffffffffffffffffffffffffffff166106ec826109ba565b73ffffffffffffffffffffffffffffffffffffffff1614151561070e57600080fd5b610717836109ba565b91508173ffffffffffffffffffffffffffffffffffffffff168473ffffffffffffffffffffffffffffffffffffffff161415151561075457600080fd5b600061075f84610865565b73ffffffffffffffffffffffffffffffffffffffff16141580610799575060008473ffffffffffffffffffffffffffffffffffffffff1614155b1561085657836002600085815260200190815260200160002060006101000a81548173ffffffffffffffffffffffffffffffffffffffff021916908373ffffffffffffffffffffffffffffffffffffffff1602179055508373ffffffffffffffffffffffffffffffffffffffff168273ffffffffffffffffffffffffffffffffffffffff167f8c5be1e5ebec7d5bd14f71427d1e84f3dd0314c0f7b2291e5b200ac8c7c3b925856040518082815260200191505060405180910390a35b50505050565b60008054905090565b60006002600083815260200190815260200160002060009054906101000a900473ffffffffffffffffffffffffffffffffffffffff169050919050565b60008160006006600083815260200190815260200160002054141515156108c857600080fd5b600660008481526020019081526020016000205491508134101515156108ed57600080fd5b6109006108f9846109ba565b3385610dd1565b816006600085815260200190815260200160002081905550505050565b61092561151c565b600360008373ffffffffffffffffffffffffffffffffffffffff1673ffffffffffffffffffffffffffffffffffffffff1681526020019081526020016000208054806020026020016040519081016040528092919081815260200182805480156109ae57602002820191906000526020600020905b81548152602001906001019080831161099a575b50505050509050919050565b6000806001600084815260200190815260200160002060009054906101000a900473ffffffffffffffffffffffffffffffffffffffff169050600073ffffffffffffffffffffffffffffffffffffffff168173ffffffffffffffffffffffffffffffffffffffff1614151515610a2f57600080fd5b80915050919050565b6000600360008373ffffffffffffffffffffffffffffffffffffffff1673ffffffffffffffffffffffffffffffffffffffff168152602001908152602001600020805490509050919050565b66038d7ea4c6800081565b600560009054906101000a900473ffffffffffffffffffffffffffffffffffffffff1681565b610abd611508565b6040805190810160405280600381526020017f4845580000000000000000000000000000000000000000000000000000000000815250905090565b600066038d7ea4c680003410151515610b1057600080fd5b610b1a3383610f1a565b66038d7ea4c68000600660008481526020019081526020016000208190555066038d7ea4c68000340390503373ffffffffffffffffffffffffffffffffffffffff166108fc829081150290604051600060405180830381858888f193505050501515610b8557600080fd5b5050565b6040805190810160405280600681526020017f434f4c4f5253000000000000000000000000000000000000000000000000000081525081565b803373ffffffffffffffffffffffffffffffffffffffff16610be3826109ba565b73ffffffffffffffffffffffffffffffffffffffff16141515610c0557600080fd5b610c10338484610dd1565b505050565b610c1f3382610fb4565b1515610c2a57600080fd5b610c3d610c36826109ba565b3383610dd1565b50565b600560009054906101000a900473ffffffffffffffffffffffffffffffffffffffff1673ffffffffffffffffffffffffffffffffffffffff163373ffffffffffffffffffffffffffffffffffffffff16141515610c9c57600080fd5b600073ffffffffffffffffffffffffffffffffffffffff168173ffffffffffffffffffffffffffffffffffffffff1614151515610cd857600080fd5b8073ffffffffffffffffffffffffffffffffffffffff16600560009054906101000a900473ffffffffffffffffffffffffffffffffffffffff1673ffffffffffffffffffffffffffffffffffffffff167f8be0079c531659141344cd1fd0a4f28419497f9722a3daafe3b4186f6b6457e060405160405180910390a380600560006101000a81548173ffffffffffffffffffffffffffffffffffffffff021916908373ffffffffffffffffffffffffffffffffffffffff16021790555050565b6040805190810160405280600381526020017f484558000000000000000000000000000000000000000000000000000000000081525081565b600073ffffffffffffffffffffffffffffffffffffffff168273ffffffffffffffffffffffffffffffffffffffff1614151515610e0d57600080fd5b610e16816109ba565b73ffffffffffffffffffffffffffffffffffffffff168273ffffffffffffffffffffffffffffffffffffffff1614151515610e5057600080fd5b8273ffffffffffffffffffffffffffffffffffffffff16610e70826109ba565b73ffffffffffffffffffffffffffffffffffffffff16141515610e9257600080fd5b610e9c8382610ff5565b610ea683826110de565b610eb08282611366565b8173ffffffffffffffffffffffffffffffffffffffff168373ffffffffffffffffffffffffffffffffffffffff167fddf252ad1be2c89b69c2b068fc378daa952ba7f163c4a11628f55a4df523b3ef836040518082815260200191505060405180910390a3505050565b600073ffffffffffffffffffffffffffffffffffffffff168273ffffffffffffffffffffffffffffffffffffffff1614151515610f5657600080fd5b610f608282611366565b8173ffffffffffffffffffffffffffffffffffffffff1660007fddf252ad1be2c89b69c2b068fc378daa952ba7f163c4a11628f55a4df523b3ef836040518082815260200191505060405180910390a35050565b60008273ffffffffffffffffffffffffffffffffffffffff16610fd683610865565b73ffffffffffffffffffffffffffffffffffffffff1614905092915050565b8173ffffffffffffffffffffffffffffffffffffffff16611015826109ba565b73ffffffffffffffffffffffffffffffffffffffff1614151561103757600080fd5b60006002600083815260200190815260200160002060006101000a81548173ffffffffffffffffffffffffffffffffffffffff021916908373ffffffffffffffffffffffffffffffffffffffff16021790555060008273ffffffffffffffffffffffffffffffffffffffff167f8c5be1e5ebec7d5bd14f71427d1e84f3dd0314c0f7b2291e5b200ac8c7c3b925836040518082815260200191505060405180910390a35050565b60008060008473ffffffffffffffffffffffffffffffffffffffff16611103856109ba565b73ffffffffffffffffffffffffffffffffffffffff1614151561112557600080fd5b60046000858152602001908152602001600020549250611157600161114987610a38565b6114d190919063ffffffff16565b9150600360008673ffffffffffffffffffffffffffffffffffffffff1673ffffffffffffffffffffffffffffffffffffffff168152602001908152602001600020828154811015156111a557fe5b906000526020600020900154905060006001600086815260200190815260200160002060006101000a81548173ffffffffffffffffffffffffffffffffffffffff021916908373ffffffffffffffffffffffffffffffffffffffff16021790555080600360008773ffffffffffffffffffffffffffffffffffffffff1673ffffffffffffffffffffffffffffffffffffffff1681526020019081526020016000208481548110151561125357fe5b9060005260206000209001819055506000600360008773ffffffffffffffffffffffffffffffffffffffff1673ffffffffffffffffffffffffffffffffffffffff168152602001908152602001600020838154811015156112b057fe5b906000526020600020900181905550600360008673ffffffffffffffffffffffffffffffffffffffff1673ffffffffffffffffffffffffffffffffffffffff1681526020019081526020016000208054809190600190036113119190611530565b506000600460008681526020019081526020016000208190555082600460008381526020019081526020016000208190555061135960016000546114d190919063ffffffff16565b6000819055505050505050565b60008073ffffffffffffffffffffffffffffffffffffffff166001600084815260200190815260200160002060009054906101000a900473ffffffffffffffffffffffffffffffffffffffff1673ffffffffffffffffffffffffffffffffffffffff161415156113d557600080fd5b826001600084815260200190815260200160002060006101000a81548173ffffffffffffffffffffffffffffffffffffffff021916908373ffffffffffffffffffffffffffffffffffffffff16021790555061143083610a38565b9050600360008473ffffffffffffffffffffffffffffffffffffffff1673ffffffffffffffffffffffffffffffffffffffff1681526020019081526020016000208054806001018281611483919061155c565b9160005260206000209001600084909190915055508060046000848152602001908152602001600020819055506114c660016000546114ea90919063ffffffff16565b600081905550505050565b60008282111515156114df57fe5b818303905092915050565b60008082840190508381101515156114fe57fe5b8091505092915050565b602060405190810160405280600081525090565b602060405190810160405280600081525090565b815481835581811511611557578183600052602060002091820191016115569190611588565b5b505050565b815481835581811511611583578183600052602060002091820191016115829190611588565b5b505050565b6115aa91905b808211156115a657600081600090555060010161158e565b5090565b905600a165627a7a72305820f61fce56edc3ee435cbad60426a0c65ffb4f6270d36528608f0c50b91a9e5d7a0029",
  "source": "pragma solidity ^0.4.18;\n\nimport 'zeppelin-solidity/contracts/token/ERC721/ERC721Token.sol';\nimport 'zeppelin-solidity/contracts/ownership/Ownable.sol';\n\ncontract ColorsERC721 is ERC721Token, Ownable{\n  string constant public NAME = \"COLORS\";\n  string constant public SYMBOL = \"HEX\";\n\n  uint256 constant public PRICE = .001 ether;\n\n  mapping(uint256 => uint256) tokenToPriceMap;\n\n  function ColorsERC721() public{\n\n  }\n\n  function name() public pure returns(string){\n    return NAME;\n  }\n\n  function symbol() public pure returns(string){\n    return SYMBOL;\n  }\n\n  function mint(uint256 _tokenId) public payable {\n    require(msg.value >= PRICE);\n    _mint(msg.sender,_tokenId);\n    tokenToPriceMap[_tokenId] = PRICE;\n\n    uint priceExcess = msg.value - PRICE;\n    msg.sender.transfer(priceExcess);\n  }\n\n  function claim(uint _tokenId) public payable onlyMintedToken(_tokenId){\n    uint askingPrice= tokenToPriceMap[_tokenId];\n    require(msg.value >= askingPrice);\n\n    clearApprovalAndTransfer(ownerOf(_tokenId), msg.sender, _tokenId);\n    tokenToPriceMap[_tokenId] = askingPrice;\n  }\n\n  modifier onlyMintedToken(uint _tokenId){\n    require(tokenToPriceMap[_tokenId] != 0);\n    _;\n  }\n\n}\n",
  "sourcePath": "/Users/MehtaUser/Desktop/RBC/CryptoChicks/colors-master/contracts/ColorsERC721.sol",
  "compiler": {
    "name": "solc",
    "version": "0.4.19+commit.c4cbbb05.Emscripten.clang"
  },
  "schemaVersion": "2.0.0",
  "updatedAt": "2018-03-22T03:00:30.873Z"
}